:0400000060EF00F0BD
:100008001882FACF05F0FBCF06F0E9CF07F0EACF68
:1000180008F0E1CF09F0E2CF0AF0D9CF0BF0DACF40
:100028000CF0F3CF0DF0F4CF0EF0F6CF0FF0F7CFC2
:1000380010F0F8CF11F0F5CF12F0F2BAF2A404D014
:100048008AB88A98F294C2829DBC9EAC17D09E9CB6
:10005800C3CF01F0060E026ED8900132022EFCD7F3
:100068000150C4CF03F0046AD89003360436D89000
:10007800033604360310166E0450176E12C0F5FFCF
:1000880011C0F8FF10C0F7FF0FC0F6FF0EC0F4FF55
:100098000DC0F3FF0CC0DAFF0BC0D9FF0AC0E2FFA6
:1000A80009C0E1FF08C0EAFF07C0E9FF06C0FBFF7F
:1000B80005C0FAFF18921100B5EF00F0ACEC00F0A3
:1000C80083EC00F0BCEC00F0910E9CEC00F0F28E9A
:1000D800F28C9D8C9E9C000E156E000E146E9D9CDD
:1000E80016C014F017C015F09D8C15BEF8D7310E48
:1000F800145C020E1558D8A0F2D78A88F0D7C280AF
:10010800C292C284C296C298C29AC29C92820F01BD
:100118005B83C19EF30EC116FC0EC116C09EC05073
:10012800C70B2009C06EC050F80B0509C06E12003D
:10013800136E13507F0BD56E000ED76E000ED66E61
:10014800F29413AE02D0F28A01D0F29AD58E120040
:10015800D38ED388D38AD38CD396D394FC0ED3165C
:100168001200176A166A18901892000162EF00F0E0
:0E017800000E936E010E8A6E8A988A9A12000B
:020000040020DA
:08000000FFFFFFFFFFFFFFFF00
:020000040030CA
:0E00000000285F3CFFD1A1FF03C003E00340D6
:00000001FF
