:0400000083EF00F09A
:100008001982FACF05F0FBCF06F0E9CF07F0EACF67
:1000180008F0E1CF09F0E2CF0AF0D9CF0BF0DACF40
:100028000CF0F3CF0DF0F4CF0EF0F6CF0FF0F7CFC2
:1000380010F0F8CF11F0F5CF12F0F2BAF2A427D0F1
:100048008AB802D08A8801D08A9817501810D8B474
:1000580006D09482000E186E000E176E13D0D00EC4
:1000680013180EE1070E1418D8A40AD09492000EA3
:10007800186E010E176E000E146E000E136E02D06D
:10008800134A142AF294F00ED76E600ED66E9DBCF9
:100098009EAC17D09E9CC3CF01F0060E026ED8907E
:1000A8000132022EFCD70150C4CF03F0046AD89065
:1000B80003360436D890033604360310156E045000
:1000C800166E12C0F5FF11C0F8FF10C0F7FF0FC081
:1000D800F6FF0EC0F4FF0DC0F3FF0CC0DAFF0BC033
:1000E800D9FF0AC0E2FF09C0E1FF08C0EAFF07C064
:1000F800E9FF06C0FBFF05C0FAFF19921100A4EF43
:1001080000F0AFEC00F0B8EC00F0F00ED76E600E27
:10011800D66ED59CD59AD598D586D58EF28AF28E8C
:10012800F28C9D8C9E9C9482000E826E180EBB6E83
:100138001C0E976E0C0E906EBA92BA80BA84FFD7D6
:10014800186A176A166A156A146A136A1990199256
:10015800000185EF00F0D38ED388D38AD38CD39651
:10016800D394FC0ED3161200000E936E000E8A6E06
:02017800120073
:020000040020DA
:08000000FFFFFFFFFFFFFFFF00
:020000040030CA
:0E00000000285F3CFFD1A1FF03C003E00340D6
:00000001FF
