:020000040000fa
:080000000001040000000000f3
:020000040000fa
:04000800a80100004b
:020000040000fa
:04000c00a801000047
:020000040000fa
:04001000a801000043
:020000040000fa
:04001400a80100003f
:020000040000fa
:04001800a80100003b
:020000040000fa
:04001c00a801000037
:020000040000fa
:04002000a801000033
:020000040000fa
:04002400a80100002f
:020000040000fa
:04002800a80100002b
:020000040000fa
:04002c00a801000027
:020000040000fa
:04003000a801000023
:020000040000fa
:04003400a80100001f
:020000040000fa
:04003800a80100001b
:020000040000fa
:04003c00a801000017
:020000040000fa
:04004000a801000013
:020000040000fa
:04004400a80100000f
:020000040000fa
:04004800a80100000b
:020000040000fa
:04004c00a801000007
:020000040000fa
:04005000a801000003
:020000040000fa
:04005400fa010000ad
:020000040000fa
:04005800a8010000fb
:020000040000fa
:04005c00a8010000f7
:020000040000fa
:04006000a8010000f3
:020000040000fa
:04006400a8010000ef
:020000040000fa
:04006800a8010000eb
:020000040000fa
:04006c00a8010000e7
:020000040000fa
:04007000a8010000e3
:020000040000fa
:04007400a8010000df
:020000040000fa
:04007800a8010000db
:020000040000fa
:04007c00a8010000d7
:020000040000fa
:04008000a8010000d3
:020000040000fa
:04008400a8010000cf
:020000040000fa
:04008800a8010000cb
:020000040000fa
:04008c00a8010000c7
:020000040000fa
:04009000a8010000c3
:020000040000fa
:04009400a8010000bf
:020000040000fa
:04009800a8010000bb
:020000040000fa
:04009c00a8010000b7
:020000040000fa
:0400a000a8010000b3
:020000040000fa
:0400a400a8010000af
:020000040000fa
:0400a800a8010000ab
:020000040000fa
:0400ac00a8010000a7
:020000040000fa
:0400b000a8010000a3
:020000040000fa
:0400b400a80100009f
:020000040000fa
:0400b800a80100009b
:020000040000fa
:0400bc00a801000097
:020000040000fa
:0400c000a801000093
:020000040000fa
:0400c400a80100008f
:020000040000fa
:04010800a80100004a
:020000040000fa
:04010c00a801000046
:020000040000fa
:04011000a801000042
:020000040000fa
:04011400a80100003e
:020000040000fa
:04011800a80100003a
:020000040000fa
:04011c00a801000036
:020000040000fa
:04012000a801000032
:020000040000fa
:04012400a80100002e
:020000040000fa
:04012800a80100002a
:020000040000fa
:04012c00a801000026
:020000040000fa
:04013000a801000022
:020000040000fa
:04013400a80100001e
:020000040000fa
:04013800a80100001a
:020000040000fa
:04013c00a801000016
:020000040000fa
:04014000a801000012
:020000040000fa
:04014400a80100000e
:020000040000fa
:04014800a80100000a
:020000040000fa
:04014c00a801000006
:020000040000fa
:04015000a801000002
:020000040000fa
:04015400a8010000fe
:020000040000fa
:04015800a8010000fa
:020000040000fa
:04015c00a8010000f6
:020000040000fa
:04016000a8010000f2
:020000040000fa
:04016400a8010000ee
:020000040000fa
:04016800a8010000ea
:020000040000fa
:04016c00a8010000e6
:020000040000fa
:04017000a8010000e2
:020000040000fa
:04017400a8010000de
:020000040000fa
:04017800a8010000da
:020000040000fa
:04017c00a8010000d6
:020000040000fa
:04018000a8010000d2
:020000040000fa
:04018400a8010000ce
:020000040000fa
:04018800a8010000ca
:020000040000fa
:04018c00a8010000c6
:020000040000fa
:04019000a8010000c2
:020000040000fa
:04019400a8010000be
:020000040000fa
:04019800a8010000ba
:020000040000fa
:04019c00a8010000b6
:020000040000fa
:0401a000a8010000b2
:020000040000fa
:0401a400a8010000ae
:020000040000fa
:0401a800a8010000aa
:020000040000fa
:0401ac00a8010000a6
:020000040000fa
:0401b000a8010000a2
:020000040000fa
:0401b400a80100009e
:020000040000fa
:0401b800a80100009a
:020000040000fa
:0401bc00a801000096
:020000040000fa
:0401c000a801000092
:020000040000fa
:0401c400a80100008e
:020000040000fa
:100200000f8020000e8f20000e01880000000000eb
:10021000000020000000e000020032000001200089
:10022000200288000c00070040232000010020006d
:1002300011000700000020000000e0000200320072
:100240000000020000000000ac01020000000000fd
:100250000040da000000fe004440a9000000200039
:100260000000e0000300320000002000a001880030
:100270004440a8000000060091018800800078003a
:100280000000eb0015003700e280400032a0b4000f
:100290009101ba00e280400032a0b4009102ba009d
:1002a000e280400032a0b4000002eb00472bde00e9
:1002b000f507b200602ce10004003a000059eb00a1
:1002c0008301e900fdff3e00040037006128e100e2
:1002d000010032000082eb000b00070011c3ba00de
:1002e0001101ba000604e00003003a000200e00039
:1002f000e5ff3a0000000600f607b200960188000c
:1003000082007800f5ff37003159ba008301e90017
:100310000c0032002159ba008301e90008003200c4
:100320000400e00003003a00e280400032a0b40084
:10033000f5ff370011d9ba008301e900faff3a004e
:100340008100e800e180400032a0b4000000060017
:080350000040da000000fe008d
:020000040000fa
:100358000000fa0070002000403a880001a3a900bc
:100368000103a90000e3a90000c3a90000a3a90094
:10037800001880000000a1000010a0000020a100cb
:1003880000188800c0ff2f00101888000623ef000f
:100398005118800000fe2f00008060000000a000bf
:1003a800501888000ae3a8000421ef000021ef009c
:1003b80040062000100888008560a90040058000dc
:1003c80000c0a10000d0a10000e0a0004005880006
:1003d8009560a80001e3a8000263a800c662a9000e
:1003e800ca62a9000aa3a800ffff3700809fbe00c9
:1003f800821f78003400f80000002000a001880067
:100408000000fa008560a9000aa3a8005016800021
:100418006800600000f0a7000000ea000000e900a2
:100428004f00de00004078000080fb0061006000a3
:100438004300dd005216800071ff2f00810061002b
:1004480001007000501688000603a9000080fa0019
:100458003400f9004f0178004f00be00004006004c
:020000040000fa
:0404680036028000d8
:020000040000fa
:04046c00000000008c
:020000040000fa
:0200000401f009
:04000c00fdff0000f4
:020000040000fa
:0200000401f009
:04001000ffff0000ee
:00000001FF
