:020000040000fa
:080000000001040000000000f3
:020000040000fa
:04000800a80100004b
:020000040000fa
:04000c00a801000047
:020000040000fa
:04001000a801000043
:020000040000fa
:04001400a80100003f
:020000040000fa
:04001800a80100003b
:020000040000fa
:04001c00a801000037
:020000040000fa
:04002000a801000033
:020000040000fa
:04002400a80100002f
:020000040000fa
:04002800a80100002b
:020000040000fa
:04002c00a801000027
:020000040000fa
:04003000a801000023
:020000040000fa
:040034008a0200003c
:020000040000fa
:04003800a80100001b
:020000040000fa
:04003c00a801000017
:020000040000fa
:04004000a801000013
:020000040000fa
:04004400a80100000f
:020000040000fa
:04004800a80100000b
:020000040000fa
:04004c00a801000007
:020000040000fa
:04005000a801000003
:020000040000fa
:040054001403000091
:020000040000fa
:04005800a8010000fb
:020000040000fa
:04005c00a8010000f7
:020000040000fa
:04006000a8010000f3
:020000040000fa
:04006400a8010000ef
:020000040000fa
:04006800a8010000eb
:020000040000fa
:04006c00a8010000e7
:020000040000fa
:04007000a8010000e3
:020000040000fa
:04007400a8010000df
:020000040000fa
:04007800a8010000db
:020000040000fa
:04007c00a8010000d7
:020000040000fa
:04008000a8010000d3
:020000040000fa
:04008400a8010000cf
:020000040000fa
:04008800a8010000cb
:020000040000fa
:04008c00a8010000c7
:020000040000fa
:04009000a8010000c3
:020000040000fa
:04009400a8010000bf
:020000040000fa
:04009800a8010000bb
:020000040000fa
:04009c00a8010000b7
:020000040000fa
:0400a000a8010000b3
:020000040000fa
:0400a400a8010000af
:020000040000fa
:0400a800a8010000ab
:020000040000fa
:0400ac00a8010000a7
:020000040000fa
:0400b000a8010000a3
:020000040000fa
:0400b400a80100009f
:020000040000fa
:0400b800a80100009b
:020000040000fa
:0400bc00a801000097
:020000040000fa
:0400c000a801000093
:020000040000fa
:0400c400a80100008f
:020000040000fa
:04010800a80100004a
:020000040000fa
:04010c00a801000046
:020000040000fa
:04011000a801000042
:020000040000fa
:04011400a80100003e
:020000040000fa
:04011800a80100003a
:020000040000fa
:04011c00a801000036
:020000040000fa
:04012000a801000032
:020000040000fa
:04012400a80100002e
:020000040000fa
:04012800a80100002a
:020000040000fa
:04012c00a801000026
:020000040000fa
:04013000a801000022
:020000040000fa
:04013400a80100001e
:020000040000fa
:04013800a80100001a
:020000040000fa
:04013c00a801000016
:020000040000fa
:04014000a801000012
:020000040000fa
:04014400a80100000e
:020000040000fa
:04014800a80100000a
:020000040000fa
:04014c00a801000006
:020000040000fa
:04015000a801000002
:020000040000fa
:04015400a8010000fe
:020000040000fa
:04015800a8010000fa
:020000040000fa
:04015c00a8010000f6
:020000040000fa
:04016000a8010000f2
:020000040000fa
:04016400a8010000ee
:020000040000fa
:04016800a8010000ea
:020000040000fa
:04016c00a8010000e6
:020000040000fa
:04017000a8010000e2
:020000040000fa
:04017400a8010000de
:020000040000fa
:04017800a8010000da
:020000040000fa
:04017c00a8010000d6
:020000040000fa
:04018000a8010000d2
:020000040000fa
:04018400a8010000ce
:020000040000fa
:04018800a8010000ca
:020000040000fa
:04018c00a8010000c6
:020000040000fa
:04019000a8010000c2
:020000040000fa
:04019400a8010000be
:020000040000fa
:04019800a8010000ba
:020000040000fa
:04019c00a8010000b6
:020000040000fa
:0401a000a8010000b2
:020000040000fa
:0401a400a8010000ae
:020000040000fa
:0401a800a8010000aa
:020000040000fa
:0401ac00a8010000a6
:020000040000fa
:0401b000a8010000a2
:020000040000fa
:0401b400a80100009e
:020000040000fa
:0401b800a80100009a
:020000040000fa
:0401bc00a801000096
:020000040000fa
:0401c000a801000092
:020000040000fa
:0401c400a80100008e
:020000040000fa
:100200004f8020000e8f20000e01880000000000ab
:10021000000020000000e000020032000001200089
:10022000200288000c000700603920000100200037
:1002300011000700000020000000e0000200320072
:100240000000020000000000700202000000000038
:100250000040da000000fe004440a9000000200039
:100260000000e0000300320000002000a001880030
:100270004440a8000000060091018800800078003a
:100280000000eb0015003700e280400032a0b4000f
:100290009101ba00e280400032a0b4009102ba009d
:1002a000e280400032a0b4000002eb00472bde00e9
:1002b000f507b200602ce10004003a000059eb00a1
:1002c0008301e900fdff3e00040037006128e100e2
:1002d000010032000082eb000b00070011c3ba00de
:1002e0001101ba000604e00003003a000200e00039
:1002f000e5ff3a0000000600f607b200960188000c
:1003000082007800f5ff37003159ba008301e90017
:100310000c0032002159ba008301e90008003200c4
:100320000400e00003003a00e280400032a0b40084
:10033000f5ff370011d9ba008301e900faff3a004e
:100340008100e800e180400032a0b4000000060017
:100350000040da000000fe009460a90005e1a90059
:100360008460a9000000060094c0a90011e1a90062
:0803700084c0a9000000060092
:020000040000fa
:100378000000fa000421ef000021ef0000e2240051
:10038800100888009460a8000080fa0000000600a9
:100398000000fa000021ef009460a80005e1a80021
:1003a8000080fa00000006000000fa0011a1a90070
:1003b80010c1a9001061a9001021a90080088000bf
:1003c8000040a1000050a100800888000080fa00c9
:1003d800000006000000fa00e00f2000000c880072
:1003e8008461a9000080fa00000006000000fa00fd
:1003f8000621ef00e01f200060088800200c800024
:100408000000a1000010a0000020a000200c88001f
:1004180011e1a8000080fa00000006000000fa00c0
:10042800cfff0700200c80000000a1000010a100f1
:100438000020a100200c88000080fa0000000600bf
:100448000000fa0001a3a9000103a90000e3a90024
:1004580000c3a90000a3a900001880000000a100a3
:100468000010a0000020a10000188800c0ff2f0085
:10047800101888000623ef005118800000fe2f0096
:10048800008060000000a000501888000ae3a8005f
:100498008560a9004005800000c0a10000d0a1002f
:1004a80000e0a000400588009560a8000080fa00e0
:1004b800000006000000fa000243a800c642a90096
:1004c800ca42a9000263a800c662a900ca62a900bc
:1004d8000080fa00000006000000fa00700020000a
:1004e800403a8800bbff0700afff0700d4ff0700b2
:1004f8009fff0700efff070001e3a80005e1a80040
:100508009560a8000aa3a800ffff37003600f8008e
:10051800809fbe00829fbe00849fbe00869fbe0053
:100528003400f80000002000a00188000000fa0054
:100538008460a90000c8bf000000fb00e30f500062
:100548001a003200e40f50001f003200e20f500082
:1005580028003a0010408000ee0f500022003400be
:10056800501680006800600000f0a7000000ea0054
:100578000000e9004f00de00004078000080fb002a
:10058800610060004300dd005216800071ff2f00fb
:1005980081006100010070005016880030c0b3006f
:1005a80000e8b70091ff07001200370010408000f4
:1005b800ef0f50000e00340098ff070040c0b30052
:1005c80000e8b7000b00370010408000fe0f500015
:1005d800080034005eff070010c0b30000e8b70051
:1005e8000aa3a8000300370000000000010037003c
:1005f80000000000104080000000e8001040880063
:100608000080fa003400f9004f03be004f02be001c
:100618004f01be004f00be003600f9000040060042
:100628003600f800809fbe00829fbe00849fbe00f7
:10063800869fbe003400f80000002000a00188005a
:100648000200fa008560a90000198000000f7800f8
:10065800501680006400600000f0a7000000ea0067
:100668000000e9004f00de00004078000080fb0039
:10067800610060004200dd0052168000b1ff2f00cb
:10068800810061000100700050168800c019200028
:100698009e007800808f500004003400b0232000b2
:1006a8009e007800808f50001400340020c0b300f2
:1006b80000e8b7000228ef0035ff07005016800059
:1006c8006800600000f0a7000000ea000000e900f0
:1006d8004f00de00004078000080fb0061006000f1
:1006e8004300dd005216800071ff2f008100610079
:1006f8000100700050168800010037000aa3a80006
:100708000603a9000080fa003400f9004f03be0078
:100718004f02be004f01be004f00be003600f90078
:040728000040060087
:020000040000fa
:10072c0000080000020000000200000001000000b0
:10073c00020800000200000000000000a603800078
:020000040000fa
:04074c0000000000a9
:020000040000fa
:0200000401f009
:04000c00fdff0000f4
:020000040000fa
:0200000401f009
:04001000ffff0000ee
:00000001FF
