:04000000E2EF00F03B
:100008003082FACF05F0FBCF06F0E9CF07F0EACF50
:1000180008F0E1CF09F0E2CF0AF0D9CF0BF0DACF40
:100028000CF0F3CF0DF0F4CF0EF0F6CF0FF0F7CFC2
:1000380010F0F8CF11F0F5CF12F0F2BAF2A459D0BF
:10004800F2942950D8B41BD0230E20182110D8A41C
:100058004CD0000E216E000E206E010E2E6E000E8A
:10006800296E2650D8B403D0000E2A6E01D02A2A51
:10007800000E266E010E2D6E9E9C9D9C38D02B5036
:10008800D8B407D0E8EC01F0000E2B6E010E286EF4
:100098002ED02E50D8B415D0A1EC01F089B203D0DF
:1000A800016A012A01D0016A014689500118FD0B35
:1000B8000118896EEBEC01F0010E2B6E000E2E6E0E
:1000C80016D02850D8B411D00F0E20182110D8A45B
:1000D8000CD0000E216E000E206E000E286E010E50
:1000E800296E9D8CF0EC01F002D0204A212AC6EC42
:1000F80001F09DB09EA001D09E909DBC9EAC40D0CA
:100108009E9CC3CF01F0060E026ED8900132022EDB
:10011800FCD70150C4CF03F0046AD89003360436E4
:10012800D890033604360310136E0450146E14BEB0
:100138000ED0D80E135C010E1458D8A008D014BEE7
:100148001DD0290E135C020E1458D8A017D0E5EC68
:1001580001F0CECF24F0256ACFCF22F0236A89B2EE
:1001680003D0016A012A01D0016A014689500118A9
:10017800FD0B0118896E010E266E9D9CF0EC01F0B6
:1001880012C0F5FF11C0F8FF10C0F7FF0FC0F6FF4F
:100198000EC0F4FF0DC0F3FF0CC0DAFF0BC0D9FF8F
:1001A8000AC0E2FF09C0E1FF08C0EAFF07C0E9FF93
:1001B80006C0FBFF05C0FAFF3092110043EF01F0C3
:1001C800B5EC01F0DBEC01F0D5EC01F0E0EC01F06E
:1001D8005EEC01F089EC01F095EC01F0000E1C6E6C
:1001E800000E1B6EF28EF28C000E1D6EBEEC01F03E
:1001F800040E2A60FDD7030E2A6401D0F9D72650D1
:10020800D8B409D02D50D8B406D022C01BF023C0D2
:100218001CF0010E1D6E1D50D8B4EAD72D50D8B46D
:10022800E7D71BC017F01CC018F0000E1A6E000E9E
:10023800196E79EC01F0000E1D6E000E2D6ED8D7E8
:10024800176E1550F30BCC6E17C016F07F0E1616EE
:10025800D8901634CD6E000ECF6E000ECE6E9E90E6
:1002680017AE02D09D8001D09D90A49015A402D015
:10027800A38001D0A390CCBECC86CD80120000EE26
:100288001EF00E0EEE6AE806FDE1DC0EF66E030EB9
:10029800F76E000EF86E00EE2CF010EE04F0090078
:1002A800F5CFEEFFE550E150FAE1309030920001D1
:1002B800E4EF00F0C280C292C284C296C298C28A99
:1002C800C29C0F015C879386C19EF30EC116FC0E7B
:1002D800C116C09EC050C70B2009C06EC050F80B95
:1002E8000509C06E9E9C9D8C1200160ECEEC01F086
:1002F8001850CEEC01F01750CEEC01F01A50CEECAD
:1003080001F01950CEEC01F01200AC94190EAF6E4A
:10031800AC98AB8E948E948C8B9C8B9EAB88AC8A5D
:1003280012009492000E826E180EBB6E1C0E976E11
:100338000C0E906EBA92BA801200000E236E000E58
:10034800226E000ECF6E000ECE6E9D80CD80120004
:10035800156EACAC03D0AC9027B2AC8015C0ADFF25
:100368001200D38ED388D38AD38CD396D394FC0E21
:10037800D3161200F00ED76E600ED66EF294F28A83
:10038800D58E1200F00ED76E600ED66EF294F28AF9
:10039800D58E1200166EACA2FED71650ACEC01F04A
:1003A8001200580E156E830E24EC01F01200D59C35
:1003B800D59AD598D5861200929089909292899272
:1003C8001200CD909D901200BA94948212009492DB
:0C03D800BA841200010101FFC282120071
:020000040020DA
:08000000FFFFFFFFFFFFFFFF00
:020000040030CA
:0E00000000285F3CFFD1A1FF03C003E00340D6
:00000001FF
