:020000040000fa
:080000000001040000000000f3
:020000040000fa
:0400080020020000d2
:020000040000fa
:04000c0020020000ce
:020000040000fa
:0400100020020000ca
:020000040000fa
:0400140020020000c6
:020000040000fa
:0400180020020000c2
:020000040000fa
:04001c0020020000be
:020000040000fa
:0400200020020000ba
:020000040000fa
:0400240020020000b6
:020000040000fa
:0400280020020000b2
:020000040000fa
:04002c0020020000ae
:020000040000fa
:0400300020020000aa
:020000040000fa
:0400340020020000a6
:020000040000fa
:0400380020020000a2
:020000040000fa
:04003c00200200009e
:020000040000fa
:04004000200200009a
:020000040000fa
:040044002002000096
:020000040000fa
:040048002002000092
:020000040000fa
:04004c00200200008e
:020000040000fa
:04005000200200008a
:020000040000fa
:04005400a8010000ff
:020000040000fa
:040058002002000082
:020000040000fa
:04005c00200200007e
:020000040000fa
:04006000200200007a
:020000040000fa
:040064002002000076
:020000040000fa
:040068002002000072
:020000040000fa
:04006c00200200006e
:020000040000fa
:04007000200200006a
:020000040000fa
:040074002002000066
:020000040000fa
:040078002002000062
:020000040000fa
:04007c00200200005e
:020000040000fa
:04008000200200005a
:020000040000fa
:040084002002000056
:020000040000fa
:040088002002000052
:020000040000fa
:04008c00200200004e
:020000040000fa
:04009000200200004a
:020000040000fa
:040094002002000046
:020000040000fa
:040098002002000042
:020000040000fa
:04009c00200200003e
:020000040000fa
:0400a000200200003a
:020000040000fa
:0400a4002002000036
:020000040000fa
:0400a8002002000032
:020000040000fa
:0400ac00200200002e
:020000040000fa
:0400b000200200002a
:020000040000fa
:0400b4002002000026
:020000040000fa
:0400b8002002000022
:020000040000fa
:0400bc00200200001e
:020000040000fa
:0400c000200200001a
:020000040000fa
:0400c4002002000016
:020000040000fa
:0401080020020000d1
:020000040000fa
:04010c0020020000cd
:020000040000fa
:0401100020020000c9
:020000040000fa
:0401140020020000c5
:020000040000fa
:0401180020020000c1
:020000040000fa
:04011c0020020000bd
:020000040000fa
:0401200020020000b9
:020000040000fa
:0401240020020000b5
:020000040000fa
:0401280020020000b1
:020000040000fa
:04012c0020020000ad
:020000040000fa
:0401300020020000a9
:020000040000fa
:0401340020020000a5
:020000040000fa
:0401380020020000a1
:020000040000fa
:04013c00200200009d
:020000040000fa
:040140002002000099
:020000040000fa
:040144002002000095
:020000040000fa
:040148002002000091
:020000040000fa
:04014c00200200008d
:020000040000fa
:040150002002000089
:020000040000fa
:040154002002000085
:020000040000fa
:040158002002000081
:020000040000fa
:04015c00200200007d
:020000040000fa
:040160002002000079
:020000040000fa
:040164002002000075
:020000040000fa
:040168002002000071
:020000040000fa
:04016c00200200006d
:020000040000fa
:040170002002000069
:020000040000fa
:040174002002000065
:020000040000fa
:040178002002000061
:020000040000fa
:04017c00200200005d
:020000040000fa
:040180002002000059
:020000040000fa
:040184002002000055
:020000040000fa
:040188002002000051
:020000040000fa
:04018c00200200004d
:020000040000fa
:040190002002000049
:020000040000fa
:040194002002000045
:020000040000fa
:040198002002000041
:020000040000fa
:04019c00200200003d
:020000040000fa
:0401a0002002000039
:020000040000fa
:0401a4002002000035
:020000040000fa
:0401a8002002000031
:020000040000fa
:0401ac00200200002d
:020000040000fa
:0401b0002002000029
:020000040000fa
:0401b4002002000025
:020000040000fa
:0401b8002002000021
:020000040000fa
:0401bc00200200001d
:020000040000fa
:0401c0002002000019
:020000040000fa
:0401c4002002000015
:020000040000fa
:100200006f8020000e8f20000e018800000000008b
:10021000000020000000e000020032000001200089
:10022000200288000c00070040222000010020006e
:1002300011000700000020000000e0000200320072
:100240000000020000000000d401020000000000d5
:100250000040da000000fe004440a9000000200039
:100260000000e0000300320000002000a001880030
:100270004440a8000000060091018800800078003a
:100280000000eb0015003700e280400032a0b4000f
:100290009101ba00e280400032a0b4009102ba009d
:1002a000e280400032a0b4000002eb00472bde00e9
:1002b000f507b200602ce10004003a000059eb00a1
:1002c0008301e900fdff3e00040037006128e100e2
:1002d000010032000082eb000b00070011c3ba00de
:1002e0001101ba000604e00003003a000200e00039
:1002f000e5ff3a0000000600f607b200960188000c
:1003000082007800f5ff37003159ba008301e90017
:100310000c0032002159ba008301e90008003200c4
:100320000400e00003003a00e280400032a0b40084
:10033000f5ff370011d9ba008301e900faff3a004e
:100340008100e800e180400032a0b4000000060017
:10035000801f78003400f80000002000a001880011
:100360000000fa008560a90050168000640060005b
:100370000000e00001003a00ca62a90050168000a7
:10038000640060000000e00001003200ca42a900e1
:100390000603a9000aa3a8000080fa003400f900af
:1003a0004f007800004006000000fa0070002000b6
:1003b000403a880001a3a9000103a90000e3a900b5
:1003c00000c3a90000a3a800001880000000a0003e
:1003d0000010a0000020a10000188800c0ff2f001e
:1003e000101888000623ef005118800000fe2f002f
:1003f000008060000000a000501888000ae3a800f8
:100400008560a9004005800000c0a10000d0a100c7
:1004100000e0a000400588009560a80001e3a80066
:100420000aa3a8000243a800c642a900ca42a80025
:100430000263a800c662a900ca62a800ffff3700d5
:080440000040da000000fe009c
:020000040000fa
:10044800000800000400000000000000040800008c
:1004580002000000020000002c01000034028000ad
:020000040000fa
:040468000000000090
:020000040000fa
:0200000401f009
:04000c00fdff0000f4
:020000040000fa
:0200000401f009
:04001000ffff0000ee
:00000001FF
