:020000040000fa
:080000000001040000000000f3
:020000040000fa
:04000800a80100004b
:020000040000fa
:04000c00a801000047
:020000040000fa
:04001000a801000043
:020000040000fa
:04001400a80100003f
:020000040000fa
:04001800a80100003b
:020000040000fa
:04001c00a801000037
:020000040000fa
:04002000a801000033
:020000040000fa
:04002400a80100002f
:020000040000fa
:04002800a80100002b
:020000040000fa
:04002c00a801000027
:020000040000fa
:04003000a801000023
:020000040000fa
:04003400e4020000e2
:020000040000fa
:04003800a80100001b
:020000040000fa
:04003c00a801000017
:020000040000fa
:040040007e0300003b
:020000040000fa
:04004400a80100000f
:020000040000fa
:04004800a80100000b
:020000040000fa
:04004c00a801000007
:020000040000fa
:04005000a801000003
:020000040000fa
:04005400980300000d
:020000040000fa
:04005800a8010000fb
:020000040000fa
:04005c00a8010000f7
:020000040000fa
:04006000a8010000f3
:020000040000fa
:04006400a8010000ef
:020000040000fa
:04006800a8010000eb
:020000040000fa
:04006c00a8010000e7
:020000040000fa
:04007000a8010000e3
:020000040000fa
:04007400a8010000df
:020000040000fa
:04007800a8010000db
:020000040000fa
:04007c00a8010000d7
:020000040000fa
:04008000a8010000d3
:020000040000fa
:04008400a8010000cf
:020000040000fa
:04008800a8010000cb
:020000040000fa
:04008c00a8010000c7
:020000040000fa
:04009000a8010000c3
:020000040000fa
:04009400a8010000bf
:020000040000fa
:04009800a8010000bb
:020000040000fa
:04009c00a8010000b7
:020000040000fa
:0400a000a8010000b3
:020000040000fa
:0400a400a8010000af
:020000040000fa
:0400a800a8010000ab
:020000040000fa
:0400ac00a8010000a7
:020000040000fa
:0400b000a8010000a3
:020000040000fa
:0400b400a80100009f
:020000040000fa
:0400b800a80100009b
:020000040000fa
:0400bc00a801000097
:020000040000fa
:0400c000a801000093
:020000040000fa
:0400c400a80100008f
:020000040000fa
:04010800a80100004a
:020000040000fa
:04010c00a801000046
:020000040000fa
:04011000a801000042
:020000040000fa
:04011400a80100003e
:020000040000fa
:04011800a80100003a
:020000040000fa
:04011c00a801000036
:020000040000fa
:04012000a801000032
:020000040000fa
:04012400a80100002e
:020000040000fa
:04012800a80100002a
:020000040000fa
:04012c00a801000026
:020000040000fa
:04013000a801000022
:020000040000fa
:04013400a80100001e
:020000040000fa
:04013800a80100001a
:020000040000fa
:04013c00a801000016
:020000040000fa
:04014000a801000012
:020000040000fa
:04014400a80100000e
:020000040000fa
:04014800a80100000a
:020000040000fa
:04014c00a801000006
:020000040000fa
:04015000a801000002
:020000040000fa
:04015400a8010000fe
:020000040000fa
:04015800a8010000fa
:020000040000fa
:04015c00a8010000f6
:020000040000fa
:04016000a8010000f2
:020000040000fa
:04016400a8010000ee
:020000040000fa
:04016800a8010000ea
:020000040000fa
:04016c00a8010000e6
:020000040000fa
:04017000a8010000e2
:020000040000fa
:04017400a8010000de
:020000040000fa
:04017800a8010000da
:020000040000fa
:04017c00a8010000d6
:020000040000fa
:04018000a8010000d2
:020000040000fa
:04018400a8010000ce
:020000040000fa
:04018800a8010000ca
:020000040000fa
:04018c00a8010000c6
:020000040000fa
:04019000a8010000c2
:020000040000fa
:04019400a8010000be
:020000040000fa
:04019800a8010000ba
:020000040000fa
:04019c00a8010000b6
:020000040000fa
:0401a000a8010000b2
:020000040000fa
:0401a400a8010000ae
:020000040000fa
:0401a800a8010000aa
:020000040000fa
:0401ac00a8010000a6
:020000040000fa
:0401b000a8010000a2
:020000040000fa
:0401b400a80100009e
:020000040000fa
:0401b800a80100009a
:020000040000fa
:0401bc00a801000096
:020000040000fa
:0401c000a801000092
:020000040000fa
:0401c400a80100008e
:020000040000fa
:100200002f8120000e8f20000e01880000000000ca
:10021000000020000000e000020032000001200089
:10022000200288000c00070020542000010020005c
:1002300011000700000020000000e0000200320072
:100240000000020000000000800202000000000028
:100250000040da000000fe004440a900c000200079
:100260000000e0000300320000002000a001880030
:100270004440a8000000060091018800800078003a
:100280000000eb0015003700e280400032a0b4000f
:100290009101ba00e280400032a0b4009102ba009d
:1002a000e280400032a0b4000002eb00472bde00e9
:1002b000f507b200602ce10004003a000059eb00a1
:1002c0008301e900fdff3e00040037006128e100e2
:1002d000010032000082eb000b00070011c3ba00de
:1002e0001101ba000604e00003003a000200e00039
:1002f000e5ff3a0000000600f607b200960188000c
:1003000082007800f5ff37003159ba008301e90017
:100310000c0032002159ba008301e90008003200c4
:100320000400e00003003a00e280400032a0b40084
:10033000f5ff370011d9ba008301e900faff3a004e
:100340008100e800e180400032a0b4000000060017
:100350000040da000000fe0094c0a90011e1a900ed
:0803600084c0a90000000600a2
:020000040000fa
:1003680052540000543100003a000000525400007a
:08037800543200003a000000bd
:020000040000fa
:100380000000fa000421ef000021ef0000e2240049
:10039000100888009460a8000080fa0000000600a1
:1003a0000000fa0011a1a90010c1a9001061a90064
:1003b0001021a900800880000040a1000050a10089
:1003c000800888000080fa00000006000000fa00a3
:1003d000e00f2000000c88008461a9000080fa0072
:1003e000000006000000fa000621ef00e01f2000d8
:1003f00060088800200c80000000a1000010a00010
:100400000020a000200c880011e1a8000080fa0064
:10041000000006000000fa00cfff0700200c80005b
:100420000000a1000010a1000020a100200c880005
:100430000080fa00000006000000fa000621ef002c
:100440000080eb006008880094c0a80011e1a800bb
:100450000080fa00000006000000fa00beff07005e
:100460000080fa00000006000000fa0001a3a900c5
:100470000103a90000e3a90000c3a90000a3a9008b
:10048000001880000000a1000010a0000020a100c2
:1004900000188800c0ff2f00101888000623ef0006
:1004a0005118800000fe2f00008060000000a000b6
:1004b000501888000ae3a8008560a9004005800064
:1004c00000c0a10000d0a10000e0a000400588000d
:1004d0009560a8000080fa00000006000000fa0005
:1004e0000243a800c642a900ca42a9000263a800ac
:1004f000c662a900ca62a9000080fa0000000600d6
:100500000800fa0070002000403a8800afff0700a2
:10051000a3ff0700d4ff070099ff0700efff0700c4
:100520004a01070010c0b30000e8b70001e3a800cb
:1005300005e1a800030037000000000001003700bb
:10054000000000009560a90061408000010f780064
:1005500071408000110798004140800021079800f9
:1005600051408000310798009560a80010c8bf0076
:100570000004e000f0ff320011c8bf000004e000fa
:10058000efff3200401b2800260107001e00780004
:1005900011002000f10007002e0090002100200033
:1005a000ee000700a01b28001e0107001e0090009f
:1005b00011002000e90007003e009000210020000b
:1005c000e6000700dfff37003600f800809fbe001e
:1005d000829fbe00849fbe00869fbe003400f8004c
:1005e00000002000a00188000000fa008460a9003b
:1005f00003c8bf000004e000170032002140800063
:1006000020032000808f50000f003a000428ef00e4
:100610000368ef0010c0b30000e8b7001068ef00f7
:100620001168ef000c28ef000e28ef000828ef00fb
:100630000a28ef0088ff07000628ef008560a90060
:100640000603a90025003700204080000000e800d4
:10065000204088002100370001c8bf000004e000ee
:10066000060032006bff070073ff07000168ef0010
:1006700010c0b30002e8b7001800370000c8bf0080
:100680000004e0000600320050ff070055ff07009d
:100690000068ef0010c0b30001e8b7000f0037009a
:1006a00002c8bf000004e0000900320020408000c2
:1006b000ef0f500006003a000428ef000268ef0038
:1006c00010c0b30003e8b7000aa3a8000300370076
:1006d000204080000000e800204088000080fa00f0
:1006e0003400f9004f03be004f02be004f01be00b0
:1006f0004f00be003600f90000400600801f780061
:100700003400f80000002000a00188000000fa007a
:1007100084c0a900304080000000e800304088001c
:100720000080fa003400f9004f0078000040060015
:10073000809fbe00821f78003400f8000000200077
:10074000a00188000800fa008560a9003008800038
:10075000000f7800314080001107980000198000d8
:100760002007980010198000300798000603a900a0
:1007700010c8bf000004a2000004e00004003a001a
:1007800011c8bf000004a2000004e0000200320013
:1007900010002000010037000000eb00004078004e
:1007a000614060000080fb00610060004500dd00ea
:1007b00052188000f1fd2f008100610001007000df
:1007c00050188800501680006400600000f0a700f8
:1007d0000000ea000000e9004f00de000040780061
:1007e0000080fb00610060004200dd0052168000c6
:1007f000b1ff2f00810061000100700050168800d9
:1008000010c8bf000004a2000004e0000e00320087
:10081000ae009000c0192000808f5000040034000a
:10082000ae009000b0232000808f500006003400fe
:100830009e009000614088009e0078004140880042
:1008400010c0b30010e8b70011c8bf000004a20038
:100850000004e0000e003200be009000c01920002d
:10086000808f500004003400be009000b0232000b0
:10087000808f5000060034009e0090007140880078
:100880009e0078005140880010c0b30011e8b70006
:100890000080fa003400f9004f0178004f00be00dc
:1008a000004006000200fa00004f78001e40780069
:1008b000e24f5000060032001e407800f64f500014
:1008c000030032001e407800e34f500002003a005f
:1008d00010002000010037000000eb00004078000d
:1008e0000080fa00000006000200fa00004f7800c5
:1008f0000000000011118000001020000080600046
:100900000000e000fbff32001e00fb002011880009
:100910000080fa00000006000400fa0010079800aa
:100920000000eb00000f7800050037001e0090006b
:100930001e00400010407800ebff07001e0fe8008b
:100940001e0090001e004000104078000004e000ef
:10095000f6ff3a000080fa00000006000400fa00ea
:10096000000f78001107980060c1b300deff070098
:100970001e0078004800de0000407800daff070023
:100980001e00780000407800d7ff07001e0090008e
:100990004800de0000407800d3ff07001e009000f2
:1009a00000407800d0ff07000080fa000000060039
:1009b0000600fa00100798002107980020c0b30035
:1009c000c9ff07000000eb00000f78000b003700a4
:1009d0001e0090001e00400010407800b1ff07008c
:1009e0000004e0000a003a001e0090001e004000d3
:1009f00010407800bcff07001e0fe8002e0090009a
:100a00009e007800808f5000f1ff39000100370010
:100a10000000000030c0b300b3ff07000080fa0000
:100a2000000006000200fa00000f780020c0b300aa
:100a3000adff07001e007800b7ff070030c0b3000d
:100a4000a9ff07000080fa00000006000000fa007d
:100a5000a000200040118800001180000010a100bb
:100a60000020a100001188002002a9009540a900e3
:100a70008540a90021e2a8002342a8000080fa00d6
:040a8000000006006c
:020000040000fa
:100a84000008000012000000000000004a05800079
:020000040000fa
:040a9400000000005e
:020000040000fa
:0200000401f009
:04000c00fdff0000f4
:020000040000fa
:0200000401f009
:04001000ffff0000ee
:00000001FF
