:020000040000fa
:080000000001040000000000f3
:020000040000fa
:04000800a80100004b
:020000040000fa
:04000c00a801000047
:020000040000fa
:04001000a801000043
:020000040000fa
:04001400a80100003f
:020000040000fa
:04001800a80100003b
:020000040000fa
:04001c00a801000037
:020000040000fa
:04002000a801000033
:020000040000fa
:04002400a80100002f
:020000040000fa
:04002800a80100002b
:020000040000fa
:04002c00a801000027
:020000040000fa
:04003000a801000023
:020000040000fa
:040034007402000052
:020000040000fa
:04003800a80100001b
:020000040000fa
:04003c00a801000017
:020000040000fa
:040040004403000075
:020000040000fa
:04004400a80100000f
:020000040000fa
:04004800a80100000b
:020000040000fa
:04004c00a801000007
:020000040000fa
:04005000a801000003
:020000040000fa
:040054005e03000047
:020000040000fa
:04005800a8010000fb
:020000040000fa
:04005c00a8010000f7
:020000040000fa
:04006000a8010000f3
:020000040000fa
:04006400a8010000ef
:020000040000fa
:04006800a8010000eb
:020000040000fa
:04006c00a8010000e7
:020000040000fa
:04007000a8010000e3
:020000040000fa
:04007400a8010000df
:020000040000fa
:04007800a8010000db
:020000040000fa
:04007c00a8010000d7
:020000040000fa
:04008000a8010000d3
:020000040000fa
:04008400a8010000cf
:020000040000fa
:04008800a8010000cb
:020000040000fa
:04008c00a8010000c7
:020000040000fa
:04009000a8010000c3
:020000040000fa
:04009400a8010000bf
:020000040000fa
:04009800a8010000bb
:020000040000fa
:04009c00a8010000b7
:020000040000fa
:0400a000a8010000b3
:020000040000fa
:0400a400a8010000af
:020000040000fa
:0400a800a8010000ab
:020000040000fa
:0400ac00a8010000a7
:020000040000fa
:0400b000a8010000a3
:020000040000fa
:0400b400a80100009f
:020000040000fa
:0400b800a80100009b
:020000040000fa
:0400bc00a801000097
:020000040000fa
:0400c000a801000093
:020000040000fa
:0400c400a80100008f
:020000040000fa
:04010800a80100004a
:020000040000fa
:04010c00a801000046
:020000040000fa
:04011000a801000042
:020000040000fa
:04011400a80100003e
:020000040000fa
:04011800a80100003a
:020000040000fa
:04011c00a801000036
:020000040000fa
:04012000a801000032
:020000040000fa
:04012400a80100002e
:020000040000fa
:04012800a80100002a
:020000040000fa
:04012c00a801000026
:020000040000fa
:04013000a801000022
:020000040000fa
:04013400a80100001e
:020000040000fa
:04013800a80100001a
:020000040000fa
:04013c00a801000016
:020000040000fa
:04014000a801000012
:020000040000fa
:04014400a80100000e
:020000040000fa
:04014800a80100000a
:020000040000fa
:04014c00a801000006
:020000040000fa
:04015000a801000002
:020000040000fa
:04015400a8010000fe
:020000040000fa
:04015800a8010000fa
:020000040000fa
:04015c00a8010000f6
:020000040000fa
:04016000a8010000f2
:020000040000fa
:04016400a8010000ee
:020000040000fa
:04016800a8010000ea
:020000040000fa
:04016c00a8010000e6
:020000040000fa
:04017000a8010000e2
:020000040000fa
:04017400a8010000de
:020000040000fa
:04017800a8010000da
:020000040000fa
:04017c00a8010000d6
:020000040000fa
:04018000a8010000d2
:020000040000fa
:04018400a8010000ce
:020000040000fa
:04018800a8010000ca
:020000040000fa
:04018c00a8010000c6
:020000040000fa
:04019000a8010000c2
:020000040000fa
:04019400a8010000be
:020000040000fa
:04019800a8010000ba
:020000040000fa
:04019c00a8010000b6
:020000040000fa
:0401a000a8010000b2
:020000040000fa
:0401a400a8010000ae
:020000040000fa
:0401a800a8010000aa
:020000040000fa
:0401ac00a8010000a6
:020000040000fa
:0401b000a8010000a2
:020000040000fa
:0401b400a80100009e
:020000040000fa
:0401b800a80100009a
:020000040000fa
:0401bc00a801000096
:020000040000fa
:0401c000a801000092
:020000040000fa
:0401c400a80100008e
:020000040000fa
:10020000ef8020000e8f20000e018800000000000b
:10021000000020000000e000020032000001200089
:10022000200288000c000700803c20000100200014
:1002300011000700000020000000e0000200320072
:100240000000020000000000180202000000000090
:100250000040da000000fe004440a9000000200039
:100260000000e0000300320000002000a001880030
:100270004440a8000000060091018800800078003a
:100280000000eb0015003700e280400032a0b4000f
:100290009101ba00e280400032a0b4009102ba009d
:1002a000e280400032a0b4000002eb00472bde00e9
:1002b000f507b200602ce10004003a000059eb00a1
:1002c0008301e900fdff3e00040037006128e100e2
:1002d000010032000082eb000b00070011c3ba00de
:1002e0001101ba000604e00003003a000200e00039
:1002f000e5ff3a0000000600f607b200960188000c
:1003000082007800f5ff37003159ba008301e90017
:100310000c0032002159ba008301e90008003200c4
:100320000400e00003003a00e280400032a0b40084
:10033000f5ff370011d9ba008301e900faff3a004e
:100340008100e800e180400032a0b4000000060017
:100350000040da000000fe0094c0a90011e1a900ed
:0803600084c0a90000000600a2
:020000040000fa
:100368000000fa0011a1a90010c1a9001061a9009c
:100378001021a900800880000040a1000050a100c1
:10038800800888000080fa00000006000000fa00db
:10039800e00f2000000c88008461a9000080fa00aa
:1003a800000006000000fa000621ef00e01f200010
:1003b80060088800200c80000000a1000010a00048
:1003c8000020a000200c880011e1a8000080fa009d
:1003d800000006000000fa00ddff0700200c800086
:1003e8000000a1000010a1000020a100200c88003e
:1003f8000080fa00000006000000fa000621ef0065
:100408000080eb006008880094c0a80011e1a800f3
:100418000080fa00000006000000fa00ccff070088
:100428000080fa00000006000000fa0070002000ba
:10043800403a8800d5ff0700c9ff070001a3a900bb
:100448000103a90000e3a90000c3a90000a3a900b3
:10045800001880000000a1000010a0000020a100ea
:1004680000188800c0ff2f00101888000623ef002e
:100478005118800000fe2f00008060000000a000de
:10048800501888000ae3a8000421ef000021ef00bb
:1004980000e22400100888009460a8008560a90084
:1004a8004005800000c0a10000d0a10000e0a0002d
:1004b800400588009560a8000243a800c642a9002c
:1004c800ca42a9000263a800c662a900ca62a900bc
:1004d80010c0b30000e8b70005e1a800ffff37002f
:1004e8003600f800809fbe00829fbe00849fbe0039
:1004f800869fbe003400f80000002000a00188009c
:100508000000fa008460a90003c8bf000004e000ee
:100518002200320020408000fe0f50001b003a00ed
:100528000428ef000368ef0010c0b30000e8b7002c
:100538000c68ef000d68ef00b7ff07000628ef0012
:1005480001e3a9008560a9000603a90050168000f0
:100558006400600000f0a7000000ea000000e90065
:100568004f00de00004078000080fb006100600062
:100578004200dd0052168000b1ff2f0081006100ab
:1005880001007000501688003500370020408000b8
:100598000000e800204088003100370001c8bf0093
:1005a8000004e000060032008aff070092ff0700ff
:1005b8000168ef0010c0b30002e8b7002800370058
:1005c80000c8bf000004e000060032006fff07000b
:1005d80074ff07000068ef0010c0b30001e8b7001f
:1005e8001f00370002c8bf000004e00019003200f5
:1005f80020408000ef0f500016003a000428ef005a
:100608000268ef0010c0b30003e8b70001e3a800d8
:100618000aa3a800501680006400600000f0a7003c
:100628000000ea000000e9004f00de00004078000a
:100638000080fb00610060004200dd00521680006f
:10064800b1ff2f0081006100010070005016880082
:1006580003003700204080000000e80020408800a8
:100668000080fa003400f9004f03be004f02be00bc
:100678004f01be004f00be003600f90000400600e2
:10068800801f78003400f80000002000a0018800d6
:100698000000fa0084c0a900304080000000e80093
:1006a800304088000080fa003400f9004f007800dc
:1006b80000400600809fbe00821f78003400f800ca
:1006c80000002000a00188000400fa008560a9004d
:1006d80000198000000f780010198000100798009a
:1006e8000aa3a800c01920009e007800808f50003f
:1006f80004003400b02320009e007800808f500052
:100708000200340010c0b3000ce8b7009e0090004f
:10071800c0192000808f5000040034009e00900013
:10072800b0232000808f50000200340010c0b300b6
:100738000de8b700501680006400600000f0a700c4
:100748000000ea000000e9004f00de0000407800e9
:100758000080fb00610060004200dd00521680004e
:10076800b1ff2f0081006100010070005016880061
:100778000603a9000080fa003400f9004f01780050
:080788004f00be000040060016
:020000040000fa
:10079000000800000e00000000000000d0038000f0
:020000040000fa
:0407a0000000000055
:020000040000fa
:0200000401f009
:04000c00fdff0000f4
:020000040000fa
:0200000401f009
:04001000ffff0000ee
:00000001FF
