:020000040000fa
:080000000001040000000000f3
:020000040000fa
:04000800a80100004b
:020000040000fa
:04000c00a801000047
:020000040000fa
:04001000a801000043
:020000040000fa
:04001400a80100003f
:020000040000fa
:04001800a80100003b
:020000040000fa
:04001c00a801000037
:020000040000fa
:04002000a801000033
:020000040000fa
:04002400a80100002f
:020000040000fa
:04002800a80100002b
:020000040000fa
:04002c00a801000027
:020000040000fa
:04003000a801000023
:020000040000fa
:04003400f2060000d0
:020000040000fa
:04003800a80100001b
:020000040000fa
:04003c00a801000017
:020000040000fa
:040040008c07000029
:020000040000fa
:04004400a80100000f
:020000040000fa
:04004800a80100000b
:020000040000fa
:04004c00a801000007
:020000040000fa
:04005000a801000003
:020000040000fa
:04005400a6070000fb
:020000040000fa
:04005800a8010000fb
:020000040000fa
:04005c00a8010000f7
:020000040000fa
:04006000a8010000f3
:020000040000fa
:04006400a8010000ef
:020000040000fa
:04006800a8010000eb
:020000040000fa
:04006c00a8010000e7
:020000040000fa
:04007000a8010000e3
:020000040000fa
:04007400a8010000df
:020000040000fa
:04007800a8010000db
:020000040000fa
:04007c00a8010000d7
:020000040000fa
:04008000a8010000d3
:020000040000fa
:04008400a8010000cf
:020000040000fa
:04008800a8010000cb
:020000040000fa
:04008c00a8010000c7
:020000040000fa
:04009000a8010000c3
:020000040000fa
:04009400a8010000bf
:020000040000fa
:04009800a8010000bb
:020000040000fa
:04009c00a8010000b7
:020000040000fa
:0400a000a8010000b3
:020000040000fa
:0400a400a8010000af
:020000040000fa
:0400a800a8010000ab
:020000040000fa
:0400ac00a8010000a7
:020000040000fa
:0400b000a8010000a3
:020000040000fa
:0400b400a80100009f
:020000040000fa
:0400b800a80100009b
:020000040000fa
:0400bc00a801000097
:020000040000fa
:0400c000a801000093
:020000040000fa
:0400c400a80100008f
:020000040000fa
:04010800a80100004a
:020000040000fa
:04010c00a801000046
:020000040000fa
:04011000a801000042
:020000040000fa
:04011400a80100003e
:020000040000fa
:04011800a80100003a
:020000040000fa
:04011c00a801000036
:020000040000fa
:04012000a801000032
:020000040000fa
:04012400a80100002e
:020000040000fa
:04012800a80100002a
:020000040000fa
:04012c00a801000026
:020000040000fa
:04013000a801000022
:020000040000fa
:04013400a80100001e
:020000040000fa
:04013800a80100001a
:020000040000fa
:04013c00a801000016
:020000040000fa
:04014000a801000012
:020000040000fa
:04014400a80100000e
:020000040000fa
:04014800a80100000a
:020000040000fa
:04014c00a801000006
:020000040000fa
:04015000a801000002
:020000040000fa
:04015400a8010000fe
:020000040000fa
:04015800a8010000fa
:020000040000fa
:04015c00a8010000f6
:020000040000fa
:04016000a8010000f2
:020000040000fa
:04016400a8010000ee
:020000040000fa
:04016800a8010000ea
:020000040000fa
:04016c00a8010000e6
:020000040000fa
:04017000a8010000e2
:020000040000fa
:04017400a8010000de
:020000040000fa
:04017800a8010000da
:020000040000fa
:04017c00a8010000d6
:020000040000fa
:04018000a8010000d2
:020000040000fa
:04018400a8010000ce
:020000040000fa
:04018800a8010000ca
:020000040000fa
:04018c00a8010000c6
:020000040000fa
:04019000a8010000c2
:020000040000fa
:04019400a8010000be
:020000040000fa
:04019800a8010000ba
:020000040000fa
:04019c00a8010000b6
:020000040000fa
:0401a000a8010000b2
:020000040000fa
:0401a400a8010000ae
:020000040000fa
:0401a800a8010000aa
:020000040000fa
:0401ac00a8010000a6
:020000040000fa
:0401b000a8010000a2
:020000040000fa
:0401b400a80100009e
:020000040000fa
:0401b800a80100009a
:020000040000fa
:0401bc00a801000096
:020000040000fa
:0401c000a801000092
:020000040000fa
:0401c400a80100008e
:020000040000fa
:100200004f8120000e8f20000e01880000000000aa
:10021000000020000000e000020032000001200089
:10022000200288000c00070040c7200001002000c9
:1002300011000700000020000000e0000200320072
:100240000000020000000000100602000000000094
:100250000040da000000fe004440a9002001200018
:100260000000e0000300320000002000a001880030
:100270004440a8000000060091018800800078003a
:100280000000eb0015003700e280400032a0b4000f
:100290009101ba00e280400032a0b4009102ba009d
:1002a000e280400032a0b4000002eb00472bde00e9
:1002b000f507b200602ce10004003a000059eb00a1
:1002c0008301e900fdff3e00040037006128e100e2
:1002d000010032000082eb000b00070011c3ba00de
:1002e0001101ba000604e00003003a000200e00039
:1002f000e5ff3a0000000600f607b200960188000c
:1003000082007800f5ff37003159ba008301e90017
:100310000c0032002159ba008301e90008003200c4
:100320000400e00003003a00e280400032a0b40084
:10033000f5ff370011d9ba008301e900faff3a004e
:100340008100e800e180400032a0b4000000060017
:100350000040da000000fe0094c0a90011e1a900ed
:1003600084c0a9000000060003f0a200889fbe0020
:100370008a9fbe008c1f7800f5000700fc00330048
:100380006450e1004f0032006420e100520032006e
:1003900003826c0007003b000905d0000306d00073
:1003a000820f54000c065d0002003900020032008a
:1003b00089017800030678008582550004003d001d
:1003c0000003fd008103fd008502ea008b854200e9
:1003d000840f720002003b0060001000e0801800f3
:1003e0006011b8000005eb007a28e1000a0039002e
:1003f00006007800c75ddd00f707b2008780750052
:100400002d003700828171000a01780061056000cb
:100410008180d1000080d3008502e900f9ff3b0014
:10042000060440008784480002003b00600414007a
:10043000e0841c000988a300070032008a81710053
:1004400082817100610164008904d1000884d300b5
:100450008b05e800170037000978a30013003a0065
:100460000b00e000130034008b05e9000804440091
:1004700089844c000a4474000978a3000d003a00f6
:100480000b00e000070034008b05e900080444007d
:1004900089844c0001003a000b0020000978a30079
:1004a000f7ff32000001eb0002003700828171008b
:1004b0000a0178006b0007000cf0a70001f0a00013
:1004c000b40037006420e10002003a00838f6c0022
:1004d000b40033000801be000200be00ad003700ca
:1004e000889fbe008a9fbe008c1f7800980007007e
:1004f0009f00330003866c006450e1002e00320040
:100500006420e100330032006150e1002f0032002e
:100510006120e1003100320085855500eb07b00015
:1005200009002000080420000500370008044400ea
:1005300089844c000a0031000603430087834b0086
:100540000001530081815b00f8ff33000203be000d
:100550000800a0000804440089844c00f6ff39001c
:10056000c639dd0083017300010032001300200052
:100570008904d1000884d3000998a3000500320043
:100580000800a7000300a0008904d1000884d3005c
:100590008b05e8008904d1000884d3000001eb003a
:1005a0000281d2002f00070001f0a1000cf0a7008b
:1005b00001f0a000770037006420e10079003200ec
:1005c0000801be000200be00f7ff37006120e10015
:1005d000740032006000b800f3ff37000000200014
:1005e00001f82700f0ff370014002000d900370081
:1005f0000001be00410007000470a70003f0a10045
:1006000003f8a30013003a006509b100100032009e
:10061000090035006928e1000200350001002800ca
:100620000000050000004000818048008502e900cc
:10063000fcff3a0000000600f88f4200050035007c
:100640008100d1000080d3008502e800fcff3a0061
:10065000000006008000eb00000005006011b800fb
:10066000d700370081002000618055000b003d005d
:100670000b00200061fe2f000100e1001d0034008e
:1006800082817100610164008904d1000884d30073
:100690000000e800faff3a007100200061006400e9
:1006a0000300700002006000090032006104440091
:1006b000e0844c000988a500050032008b05e800a5
:1006c0006808e10002003a008904d1000884d300e0
:1006d000f20f20000258e10005003d00c75ddd007b
:1006e000f907b20089807500080078000000060054
:1006f0000bf827008b00780000000500c70ade0019
:10070000f107b200f50fb20008003200e1cf42005d
:10071000020032000170a00024000500810f70006b
:10072000010032000408050044000500810f70003c
:1007300002003a00140005008502e90000004000b4
:1007400081c04800fcff3b000170a00024000500b0
:100750000004be00e9ff07000003be000405be0060
:100760000200be00e5ff0700844f75000000060090
:100770000200be006450e100050036006420e10084
:10078000020036000968a30001003a000800be001c
:100790000160a0004f0678004f05be004f04be0068
:1007a00000000600f0ff2f00f1ff2700f9ff3700df
:1007b000889fbe008a9fbe008c1f7800e4ff070060
:1007c000ebff330003866c006450e100240032002c
:1007d0006420e100270032006150e1002200320075
:1007e0006120e100210032008b854200eb07b1005f
:1007f0000134b800003ab8000804420089844a0075
:10080000013ab8000030b8008880400009014a0071
:1008100004003300000040008180480002014900cc
:100820008b05e900c909dd00830170000100320079
:1008300013002000c814de004814dd004709de0064
:100840001200b200c808de000884700085ff0700af
:1008500001f0a1000cf0a70001f0a000cdff3700cf
:100860006120e100cfff32000801be000200be009f
:10087000f7ff37006150e100fcff3a00c9ff370085
:10088000889fbe008a9fbe008c1f78000004be00b7
:100890009aff07000478a30026003a006120e100d7
:1008a0002500320009f8a30025003a006420e10089
:1008b00021003200f507b1000508a3000200320054
:1008c00000004000818048006044b8000310200010
:1008d000020020000000400081804800080544001c
:1008e00089854c000a0541008b8549000a055000a6
:1008f0008b855800030033000a00be000204740018
:10090000838474008301d1000281d300830f7100be
:10091000f0ff3a008904d1000884d3006001490047
:1009200082017800c1adde00fb07b0004dff07007b
:1009300098ff37000960a0000800be0095ff37004f
:100940001202200092408800f0ff2f00f1ff2700e4
:1009500090ff3700889fbe008a9fbe00841f7800ea
:100960007bff07004f00780011003300f0ff2f00dd
:10097000838f6c0006003b00040565000a00a70099
:100980000800370009f0a60010002000080037001a
:10099000820f5400838f5c00030039001000200098
:1009a00001003e000000200009f0a7000000ea005e
:1009b0004f05be004f04be000000e000000006002e
:1009c000889fbe008a9fbe000082700004027100f2
:1009d00004827100260032000004be000200be0046
:1009e0006011b8006b092000950220000182cf0041
:1009f0000a0039000541b1000082cf00070039002c
:100a00000541b1000982cf00040039000541b10061
:100a10000882cf00010039000541b10005425200b3
:100a2000120032000a003b00828171006101640003
:100a30008100d1000080d3008984d3000884d300d2
:100a40008b05e8000442e800f7ff3a000700370092
:100a50000804440089844c0000004800818048005c
:100a60008b05e9000442e900f9ff3a00fdfe0700aa
:0c0a70004f05be004f04be000000060051
:020000040000fa
:100a7c0052540000547300003a000000506f000004
:100a8c00696e0000743a00000042000055470000f7
:040a9c002100000035
:020000040000fa
:100aa0000000fa000421ef000021ef0000e2240022
:100ab000100888009460a8000080fa00000006007a
:100ac0000000fa0011a1a90010c1a9001061a9003d
:100ad0001021a900800880000040a1000050a10062
:100ae000800888000080fa00000006000000fa007c
:100af000e00f2000000c88008461a9000080fa004b
:100b0000000006000000fa000621ef00e01f2000b0
:100b100060088800200c80000000a1000010a000e8
:100b20000020a000200c880011e1a8000080fa003d
:100b3000000006000000fa0007fe0700200c8000fd
:100b40000000a1000010a1000020a100200c8800de
:100b50000080fa00000006000000fa000621ef0005
:100b60000080eb006008880094c0a80011e1a80094
:100b70000080fa00000006000000fa00f6fd070001
:100b80000080fa00000006000000fa0001a3a9009e
:100b90000103a90000e3a90000c3a90000a3a90064
:100ba000001880000000a1000010a0000020a1009b
:100bb00000188800c0ff2f00101888000623ef00df
:100bc0005118800000fe2f00008060000000a0008f
:100bd000501888000ae3a8008560a900400580003d
:100be00000c0a10000d0a10000e0a00040058800e6
:100bf0009560a8000080fa00000006000000fa00de
:100c00000243a800c642a900ca42a9000263a80084
:100c1000c662a900ca62a9000080fa0000000600ae
:100c20001e00fa00889fbe0070002000403a880035
:100c3000aeff0700a2ff0700d3ff070098ff0700e1
:100c4000eeff07001a03070010c0b30000e8b7006a
:100c500001e3a80005e1a8000000eb00000f780008
:100c60006000b800000f9800110f98006000b800f5
:100c7000200f9800310f98006000b800400f9800d6
:100c8000510f980001003700000000009560a90096
:100c90006140800011079800724080002207980090
:100ca000434080003307980051408000410798007e
:100cb0009560a8001e0fe800400620009e00780006
:100cc000808f5000f0ff3a009e009000d0cc2000b2
:100cd0000088b90000017800620f98003e01900082
:100ce0004001200080017800110009000381d80034
:100cf0006e0990008000410000182c000080400028
:100d000050079800ae009000d0cc20000088b900b9
:100d100080017800630f98004e0190004001200090
:100d200080017800110009000381d8006e0990004d
:100d30008000410000182c000080400060079800ef
:100d40006e0090008000eb0044fe07000004be002f
:100d50005e0090008000eb0040fe0700700147003d
:100d6000020278000801be00e40007007007980046
:100d70007e0090000000e00012003a00e0532800de
:100d8000c1020700ee0090005e0090008c02070098
:100d900040542800bc0207002e089000be089000b6
:100da00013fe0700000478000e0890009e089000d3
:100db0000ffe07000000780088007800800207001e
:100dc00005003700b0542800af0207007e009000f5
:100dd000110020007a0207000000eb00000f7800ed
:100de000aaff37003600f800809fbe00829fbe0039
:100df000849fbe00869fbe003400f80000002000e3
:100e0000a00188000000fa008460a90003c8bf00a8
:100e10000004e00017003200214080002003200081
:100e2000808f50000f003a000428ef000368ef00a5
:100e300010c0b30000e8b7001068ef001168ef00c1
:100e40000c28ef000e28ef000828ef000a28ef001a
:100e500049ff07000628ef008560a9000603a900e6
:100e600025003700204080000000e8002040880076
:100e70002100370001c8bf000004e0000600320076
:100e80002cff070034ff07000168ef0010c0b3001b
:100e900002e8b7001800370000c8bf000004e000f7
:100ea0000600320011ff070016ff07000068ef0080
:100eb00010c0b30001e8b7000f00370002c8bf0040
:100ec0000004e0000900320020408000ef0f5000d5
:100ed00006003a000428ef000268ef0010c0b300db
:100ee00003e8b7000aa3a8000300370020408000f1
:100ef0000000e800204088000080fa003400f9007b
:100f00004f03be004f02be004f01be004f00be00a7
:100f10003600f90000400600801f78003400f80019
:100f200000002000a00188000000fa0084c0a90091
:100f3000304080000000e800304088000080fa0067
:100f40003400f9004f00780000400600809fbe008a
:100f5000821f78003400f80000002000a001880003
:100f60000800fa008560a90031088000010f7800b0
:100f70003140800011079800011980002107980076
:100f800011198000310798000603a90010c8bf009e
:100f90000004a2000004e00004003a0011c8bf00f1
:100fa0000004a2000004e000020032001000200053
:100fb000010037000000eb00004078006140600055
:100fc0000080fb00610060004500dd0052188000d9
:100fd000f1fd2f00810061000100700050188800b1
:100fe00010c8bf000004a2000004e0001d00320091
:100ff000ae009000c0192000808f50000400360021
:10100000ae009000b0232000808f50001500360005
:10101000501680006400600000f0a7000000ea00a5
:101020000000e9004f00de00004078000080fb0077
:10103000610060004200dd0052168000b1ff2f0009
:101040008100610001007000501688009e00900031
:10105000614088009e0078004140880010c0b300c5
:1010600010e8b70011c8bf000004a2000004e000af
:101070001d003200be009000c0192000808f50007b
:1010800004003600be009000b0232000808f500086
:1010900015003600501680006800600000f0a700c0
:1010a0000000ea000000e9004f00de000040780088
:1010b0000080fb00610060004300dd0052168000ec
:1010c00071ff2f0081006100010070005016880040
:1010d0009e009000714088009e007800514088007a
:1010e00010c0b30011e8b7000080fa003400f90026
:1010f0004f0178004f00be00004006003600fa00a5
:10110000889fbe008a9fbe006017980071179800e4
:10111000021f9800131f9800241f98000000200051
:1011200001082400008fbe0060392400b1d02300e4
:1011300020079800310798002e1890000000e0006a
:101140001400320018c0b3006011b8006e10900097
:10115000fe10900024fd07000000e00001003400b4
:101160000044eb000804e0000a003a0018c0b30095
:101170006011b8000e1890009e1890001afd07002c
:101180000000e000010034000044eb000804e0002f
:101190000d0032002e1990006000b8000089be00da
:1011a0002e1990006000b8002001980031019800cd
:1011b0002e1990006000b80040019800510198007d
:1011c000100020003f0137002e019000be0190006a
:1011d0006e109000fe10900075fd0700400798000b
:1011e000510798002e019000be0190000e1890004b
:1011f0009e1890006efd0700600798007107980028
:101200006e019000fe0190004e009000de00900004
:10121000f5fc07000000e00031003a002e199000b4
:101220006000b8000089be004e009000de00900013
:101230002e0107000004be001e00be002b010700a7
:101240000001be000800be0047fc07000004be000d
:101250004e009000de0090000001be0043fc07003d
:101260000001be000800be009dfc07002e19900082
:1012700020019800310198002e189000b0009000d5
:101280002000900018c0b3006011b800d6fc070021
:101290000000e000010035000044eb000804e0001d
:1012a0000d0032002e1990006000b8000089be00c9
:1012b0002e1990006000b8002001980031019800bc
:1012c0002e1990006000b80040019800510198006c
:1012d00020002000fb0037000000eb00f900370081
:1012e0001e00be00010107000004be004e00900079
:1012f000de009000fd0007000001be000800be00f7
:1013000019fc0700000f9800110f98001e00be0086
:10131000f60007000004be006e009000fe00900082
:10132000f20007000001be000800be000efc07002e
:10133000200f9800310f98006e009000fe00900082
:10134000ea0007000001be002e089000be089000d1
:1013500063fc07000004be004e009000de00900019
:10136000e20007000001be000e0890009e089000f9
:101370005bfc07000001be000800be00fafb07008e
:10138000400f9800510f98001e00be000004be00e0
:1013900009f0a2006e009000fe009000d30007004c
:1013a0000001be002e089000be0890004cfc070013
:1013b0000005be004e009000de009000cb0007004c
:1013c0000001be000e0890009e08900044fc07003b
:1013d0000001be000a00be00e4fb07000001be00e1
:1013e0000800be00f2fc0700600f9800710f980023
:1013f0002e089000be089000bc0007000004be004c
:101400006e009000fe009000b8000700020020006f
:1014100003082400e6fc07000001be000800be002f
:101420002ffc07000004be000e0890009e089000ec
:10143000ae0007000005be004e009000de009000e8
:10144000aa0007000200200003082400d8fc0700bf
:101450000001be000a00be0021fc07000001be0022
:101460000800be00c0fb0700001798001117980085
:101470006e089000fe0890009c0007000004be006b
:1014800002002000030824004e089000de089000af
:10149000c7fc07000e1190009e119000c4fc0700cd
:1014a0000001be000800be00affb07002017980037
:1014b0003117980018c0b3006011b8002e109000ca
:1014c000be10900048fc07000000e000010035005d
:1014d0000044eb000804e0000d0032002e199000db
:1014e0006000b8000089be002e1990006000b800ae
:1014f00020019800310198002e1990006000b8007a
:101500004001980051019800300020006d00370024
:101510002e109000be1090006e0007006e09900023
:10152000fe09900090fb07000004be004e089000ea
:10153000de0890000001be008cfb07000001be0029
:101540000800be00e6fb07002e1990000089be00cf
:101550002e1890001000be00640007000e099000d5
:101560009e09900092fc07000004be001e01be0010
:101570000e0890009e0890008dfc07000002be003f
:101580002e1890001000be000001be000400be0036
:1015900087fc07000001be000800be0073fb0700c7
:1015a0000004be000e0890009e0890004f00070047
:1015b0000200200003082400c9fb07000001be0050
:1015c0000800be0069fb07000004be004e0090004a
:1015d000de009000450007000001be000800be00cc
:1015e000bffb0700401798005117980018c0b300c0
:1015f0006011b8004e109000de109000fafb07005a
:101600000000e000010035000044eb000804e000a9
:101610000d0032002e1990006000b8000089be0055
:101620002e1990006000b800200198003101980048
:101630002e1990006000b8004001980051019800f8
:10164000400020001f0037004e109000de10900078
:10165000200007002e199000200198003101980009
:101660002e189000b00090002000900018c0b30029
:101670006011b800dcfb07000000e000010035004d
:101680000044eb000804e0000d0032002e19900029
:101690006000b8000089be002e1990006000b800fc
:1016a00020019800310198002e1990006000b800c8
:1016b00040019800510198002000200001003700ef
:1016c0000000eb004f05be004f04be000080fa0092
:1016d000000006000400fa00008fbe001e00be00dd
:1016e00067fc07000080fa00000006000400fa0012
:1016f000008fbe001e01be001e00be002cfc0700b5
:101700000080fa00000006000200fa00004f780096
:101710001e407800e24f5000060032001e40780064
:10172000f64f5000030032001e407800e34f500097
:1017300002003a0010002000010037000000eb001a
:10174000004078000080fa00000006000200fa0065
:10175000004f7800000000001111800000102000f0
:10176000008060000000e000fbff32001e00fb0074
:10177000201188000080fa00000006000400fa0032
:10178000100798000000eb00000f780005003700fc
:101790001e0090001e00400010407800ebff070084
:1017a0001e0fe8001e0090001e0040001040780050
:1017b0000004e000f6ff3a000080fa000000060096
:1017c0000400fa00000f78001107980060c1b30010
:1017d000deff07001e0078004800de0000407800b1
:1017e000daff07001e00780000407800d7ff0700ee
:1017f0001e0090004800de0000407800d3ff070084
:101800001e00900000407800d0ff07000080fa0022
:10181000000006000600fa00100798002107980053
:1018200020c0b300c9ff07000000eb00000f7800e4
:101830000b0037001e0090001e0040001040780092
:10184000b1ff07000004e0000a003a001e0090000b
:101850001e00400010407800bcff07001e0fe8008b
:101860002e0090009e007800808f5000f1ff39001c
:10187000010037000000000030c0b300b3ff0700d4
:101880000080fa00000006000200fa00000f780055
:1018900020c0b300adff07001e007800b7ff0700af
:1018a00030c0b300a9ff07000080fa000000060066
:1018b0000000fa00a0002000401188000011800004
:1018c0000010a1000020a100001188002002a90042
:1018d0009540a9008540a90021e2a8002342a80064
:0818e0000080fa000000060080
:020000040000fa
:1018e80000080000120000000000000012080000bc
:0c18f8000200000000000000820c8000d4
:020000040000fa
:0419040000000000df
:020000040000fa
:0200000401f009
:04000c00fdff0000f4
:020000040000fa
:0200000401f009
:04001000ffff0000ee
:00000001FF
