:04000000CCEF00F051
:100008002C82FACF05F0FBCF06F0E9CF07F0EACF54
:1000180008F0E1CF09F0E2CF0AF0D9CF0BF0DACF40
:100028000CF0F3CF0DF0F4CF0EF0F6CF0FF0F7CFC2
:1000380010F0F8CF11F0F5CF12F0F2BAF2A421D0F7
:10004800274A282AC80E27182810D8A419D089B4F6
:1000580003D0016A012A01D0016A0146014689508C
:100068000118FB0B0118896E000E286E000E276E12
:10007800D59E89908992000E2A6E000E2B6E9D8C5B
:10008800F2949DBC9EAC66D09E9C2650D8B431D0CC
:10009800C3CF01F0060E026ED8900132022EFCD7B3
:1000A8000150C4CF03F0046AD89003360436D890C0
:1000B800033604360310216E0450226E22BE0ED081
:1000C8002C0E215C010E2258D8A008D022BE09D0DF
:1000D800590E215C020E2258D8A003D08980D58EF3
:1000E8009D9C000E266EC284C286C298C28AC29C9B
:1000F80030D0C3CF01F0060E026ED8900132022E26
:10010800FCD70150C4CF03F0046AD89003360436F4
:10011800D890033604360310236E0450246E24BE90
:100128000ED02C0E235C010E2458D8A008D024BE73
:1001380009D0590E235C020E2458D8A003D0898216
:10014800D58E9D9CC284C296C298C28AC29C010E5A
:10015800266EC28212C0F5FF11C0F8FF10C0F7FF6B
:100168000FC0F6FF0EC0F4FF0DC0F3FF0CC0DAFF9E
:100178000BC0D9FF0AC0E2FF09C0E1FF08C0EAFFCF
:1001880007C0E9FF06C0FBFF05C0FAFF2C9211006B
:040198004DEF04F033
:100800000050494E4720310050494E4720320000E9
:10081000DFEC04F0F5EC04F06BEC04F0CAEC04F04F
:10082000EFEC04F0000ED76E000ED66ED59CD59A74
:10083000D598D586D59EF28AF28EF28C9D9C2AC0E0
:1008400019F01A6A2BC01BF01C6A21C01DF022C0CF
:100850001EF023C01FF024C020F09D8C19501A10E8
:10086000D8B406D0010E166E080E176EBDEC04F05B
:100870001B501C10D8B406D0080E166E080E176E4A
:10088000BDEC04F01DC015F01EC016F01FC017F01F
:1008900020C018F09FEC04F0D1D72B6A2A6A296A8D
:1008A000286A276AF40EF66E090EF76E000EF86ECF
:1008B00000EE21F010EE06F00900F5CFEEFFE55056
:1008C000E150FAE12C902C92000EF86E080EF76EB3
:1008D000000108EF04F0C280C292C284C296C2989E
:1008E000C28AC29C0F015C8793860F015C89938842
:1008F000C19EF30EC116FC0EC116C09EC050C70BA0
:100900002009C06EC050F80B0509C06E9E9C9D8CDE
:100910001200ACA2FED714C0F6FF15C0F7FF080006
:10092000F550D6EC04F014C0F6FF15C0F7FF144ADA
:10093000152A0800F5500009D8B41200EAD7160E9F
:10094000E8EC04F01650E8EC04F01550E8EC04F084
:100950001850E8EC04F01750E8EC04F01200136EA5
:100960001350FB0BBA6E000EBC6E9E9213AE02D0FB
:100970009D8201D09D92BA841200020EE8EC04F030
:1009800016C014F017C015F089EC04F0030EE8EC63
:1009900004F01200AC94190EAF6EAC98AB8E948E2E
:1009A000948C8B9C8B9EAB88AC8A1200136EACAC83
:1009B00003D0AC9029B2AC8013C0ADFF1200D38E2F
:1009C000D388D38AD38CD396D394FC0ED31612003B
:1009D000146EACA2FED71450D6EC04F01200BF0E79
:1009E000BB6E840EAFEC04F01200000E926E000E8F
:0A09F000896E1200000200020101EE
:020000040020DA
:08000000FFFFFFFFFFFFFFFF00
:020000040030CA
:0E00000000285F3CFFD1A1FF03C003E00340D6
:00000001FF
