:0400000048EF00F0D5
:100008001482FACF01F0FBCF02F0E9CF03F0EACF78
:1000180004F0E1CF05F0E2CF06F0D9CF07F0DACF50
:1000280008F0F3CF09F0F4CF0AF0F6CF0BF0F7CFD2
:100038000CF0F8CF0DF0F5CF0EF09DB09EA006D0D5
:1000480089B202D0898201D089929E900EC0F5FFB4
:100058000DC0F8FF0CC0F7FF0BC0F6FF0AC0F4FF95
:1000680009C0F3FF08C0DAFF07C0D9FF06C0E2FFE6
:1000780005C0E1FF04C0EAFF03C0E9FF02C0FBFFBF
:1000880001C0FAFF14921100A1EF00F0116E0F5099
:10009800F30BCC6E11C010F07F0E1016D8901034F0
:1000A800CD6E000ECF6E000ECE6E9E9011AE02D0B9
:1000B8009D8001D09D90A4900FA402D0A38001D070
:1000C800A390CCBECC86CD801200C280C292C284DE
:1000D800C296C298C28AC29C0F015C8793860F01A0
:1000E8005C899388C19EF30EC116FC0EC116C09E92
:1000F800C050C70B2009C06EC050F80B0509C06E70
:100108009E9C9D8C120098EC00F069EC00F0000EAB
:10011800926E000E896E580E0F6E830E4AEC00F038
:10012800F28EF28CC282FFD7D38ED388D38AD38C37
:10013800D396D394FC0ED3161200136A126A149045
:080148001492000187EF00F0A2
:020000040020DA
:08000000FFFFFFFFFFFFFFFF00
:020000040030CA
:0E00000000285F3CFFD1A1FF03C003E00340D6
:00000001FF
