:04000000D0EF00F04D
:100008002F82FACF05F0FBCF06F0E9CF07F0EACF51
:1000180008F0E1CF09F0E2CF0AF0D9CF0BF0DACF40
:100028000CF0F3CF0DF0F4CF0EF0F6CF0FF0F7CFC2
:1000380010F0F8CF11F0F5CF12F0F2BAF2A44DD0CB
:10004800F2942750D8B41BD0230E22182310D8A41A
:1000580040D0000E236E000E226E010E2E6E000E92
:10006800276E2450D8B403D0000E286E01D0282A59
:10007800000E246E010E2D6E9E9C9D9C2CD0295046
:10008800D8B407D0D0EC01F0000E296E010E266E10
:1000980022D02E50D8B409D0D6EC01F0D3EC01F020
:1000A800010E296E000E2E6E16D02650D8B411D02F
:1000B8000F0E22182310D8A40CD0000E236E000EA9
:1000C800226E000E266E010E276E9D8CD8EC01F074
:1000D80002D0224A232AABEC01F09DBC9EAC3ED054
:1000E8009E9CC3CF01F0060E026ED8900132022EFC
:1000F800FCD70150C4CF03F0046AD8900336043605
:10010800D890033604360310136E0450146E89B267
:1001180003D0016A012A01D0016A014689500118F9
:10012800FD0B0118896E14BE0ED0D00E135C010EA3
:100138001458D8A008D014BE0FD0350E135C020E88
:100148001458D8A009D0CECF2BF0CFCF2AF0C0ECCE
:1001580001F0010E246E9D9CD8EC01F012C0F5FF51
:1001680011C0F8FF10C0F7FF0FC0F6FF0EC0F4FF74
:100178000DC0F3FF0CC0DAFF0BC0D9FF0AC0E2FFC5
:1001880009C0E1FF08C0EAFF07C0E9FF06C0FBFF9E
:1001980005C0FAFF2F9211004FEF01F09AEC01F021
:1001A800C6EC01F0BAEC01F0CBEC01F034EC01F054
:1001B80079EC01F085EC01F01E681F68F28EF28C74
:1001C800000E1D6EA3EC01F0040E2860FDD7030E8F
:1001D800286401D0F9D72450D8B40ED02D50D8B403
:1001E8000BD02A501C6E1B6A2B501B141E6E000E5F
:1001F8001C141F6E010E1D6E1D50D8B4E5D72D506E
:10020800D8B4E2D71EC017F01FC018F01EC019F0EE
:100218001FC01AF069EC01F0000E1D6E000E2D6E65
:10022800D3D7176E1550F30BCC6E17C016F07F0E90
:100238001616D8901634CD6E000ECF6E000ECE6E08
:100248009E9017AE02D09D8001D09D90A49015A4D9
:1002580002D0A38001D0A390CCBECC86CD80120062
:10026800C280C292C284C296C298C28AC29C0F013E
:100278005C879386C19EF30EC116FC0EC116C09E04
:10028800C050C70B2009C06EC050F80B0509C06EDE
:100298009E9C9D8C120000EE20F00C0EEE6AE80683
:1002A800FDE1B40EF66E030EF76E000EF86E09004F
:1002B800F5CF2CF00900F5CF2DF00900F5CF2EF081
:1002C8002F902F920001D2EF00F0160EB3EC01F040
:1002D8001850B3EC01F01750B3EC01F01A50B3EC1E
:1002E80001F01950B3EC01F01200AC94190EAF6E86
:1002F800AC98AB8E948E948C8B9C8B9EAB88AC8A7E
:1003080012009492000E826E180EBB6E1C0E976E31
:100318000C0E906EBA92BA801200156EACAC03D077
:10032800AC9025B2AC8015C0ADFF1200D38ED38837
:10033800D38AD38CD396D394FC0ED3161200F00E26
:10034800D76E600ED66EF294F28AD58E1200F00E39
:10035800D76E600ED66EF294F28AD58E1200166EA3
:10036800ACA2FED7165091EC01F01200580E156E93
:10037800030E15EC01F01200CD90000ECE6E000EAB
:10038800CF6E1200D59CD59AD598D586120092903A
:100398008990929289921200BA949482120094924F
:0F03A800BA841200CD801200C28212000101013E
:020000040020DA
:08000000FFFFFFFFFFFFFFFF00
:020000040030CA
:0E00000000285F3CFFD1A1FF03C003E00340D6
:00000001FF
